:100000001DC02CC02BC02AC029C05DC927C026C076
:1000100025C024C023C0C2C721C0EDC71FC01EC059
:100020001DC01CC01BC024C926C928C92AC92CC987
:100030002EC930C932C934C936C938C911241FBEC6
:10004000CFE5D4E0DEBFCDBF22E0A0E6B0E001C046
:100050001D92A634B207E1F720DB61CBD1CFF89433
:10006000E0E4F2E0408128B3302F2E7F316052B3BC
:10007000632F5F77606878E028BB441F52BB08F4A9
:1000800062BB38BB7A95C1F7789440E952BB000057
:100090004A95E9F728BB0000089585E886B980E411
:1000A00087B9109278001092770008958770806465
:1000B00087B986EF8A95F1F7369A3699FECF84B1E3
:1000C00095B10895883048F4E82FF0E0EE0FFF1F57
:1000D000E758FF4F80819181089580E090E0089576
:1000E000CF93C0916000C83018F0CE3189F012C0B3
:1000F0008C2FDCDFEC2FF0E0EE0FFF1FE758FF4FF7
:1001000091838083809160008F5F8093600007C03F
:1001100010926000809160008F5F80936000CF91AB
:1001200008951BBC1ABC19BC18BC8FE392E097BDA4
:1001300086BD82EA8FBD8BE18EBD89B7806289BFA3
:100140000895E0916300F0916400309709F00995FB
:100150000895EBEAF0E083EB90E020E03191230F8B
:10016000E817F907D9F72093B3000895CF93DF93E9
:10017000EC019093C5008093C40045E050E0BC01C1
:1001800084EB90E095DA8091B4008234A1F082E4AF
:100190008093B40084E08093B50083E08093B60040
:1001A0001092B70082E08093B80045E050E0BE01B5
:1001B00084EB90E09EDAE0916100F091620030976C
:1001C00019F08091B50009958091B8008093C60020
:1001D0008091B6008093BA00DF91CF9108959091FD
:1001E000C6009093AB009091BA009093AC008093BE
:1001F000AD008091BC008093AE007093AF0060931F
:10020000B0005093B1004093B200A3DF9ADF08958D
:100210009091BB008091BA00981315C0EBEBF0E011
:1002200083EC90E020E03191230FE817F907D9F72C
:100230008091C300281749F040E050E0BA0181E006
:10024000CEDF83E0089582E0089580E008950F9363
:100250001F93CF93DF931F92CDB7DEB72091BF00DE
:100260006091C000862F90E0A0E0B0E0DC0199270B
:100270008827B22B2091C200822B2091C100BC01A3
:10028000CD01722B6093A7007093A8008093A90002
:100290009093AA002091BC00293009F4ACC178F4F5
:1002A000243009F4B1C228F42130F9F0223021F1D0
:1002B000A4C2253041F1263009F46CC09EC22E3014
:1002C00009F4E0C038F42A3009F42DC22D3009F4C5
:1002D00090C193C2283809F469C22E3F21F02F3013
:1002E00009F08BC21AC18EEF94C240E050E0BA010F
:1002F00084E675DF81E08DC240E050E0BA0184E61B
:100300006EDF82E086C22091BE00222339F040E0F9
:1003100050E0BA0184E063DF80E07BC22091BD0041
:100320002630E9F028F4243041F0253079F02BC054
:100330002730F1F02C3829F126C060939200709399
:10034000930080939400909395001DC06093960055
:1003500070939700809398009093990014C06093D5
:100360009A0070939B0080939C0090939D000BC01B
:1003700060939E0070939F008093A0009093A100D3
:1003800002C06093A20040E050E0BA0184E627DF9B
:1003900080E03FC28091BE00882339F040E050E009
:1003A000BA0184E01CDF80E034C28091BD00863059
:1003B00049F130F48430F1F1C8F4813059F05BC078
:1003C0008C3809F443C0843C09F449C0873009F0F3
:1003D00052C024C040918E0050918F0060919000D7
:1003E0007091910084E6FBDE80E013C2409196009C
:1003F00050919700609198007091990084E6EFDE2B
:1004000080E007C240919A0050919B0060919C004F
:1004100070919D0084E6E3DE80E0FBC140919E0088
:1004200050919F006091A0007091A10084E6D7DEFA
:1004300080E0EFC140919200509193006091940050
:100440007091950084E6CBDE80E0E3C14091A2008C
:1004500050E060E070E084E6C2DE80E0DAC1409106
:10046000A3005091A4006091A5007091A60084E6BD
:10047000B6DE80E0CEC140E050E0BA0184E0AFDEFD
:1004800080E0C7C12091BE00213009F4BFC118F03F
:10049000223041F03BC040E050E0BA0183E09FDEF3
:1004A0008EE0B7C12091BD00222319F02130A1F0C8
:1004B00026C021E0672B682B692B09F420E080918E
:1004C000890020FB80F98093890040E050E0BA0168
:1004D00084E685DE8EE09DC121E0672B682B692BC9
:1004E00009F420E08091890020FB81F98093890044
:1004F00040E050E0BA0184E672DE8EE08AC140E05E
:1005000050E0BA0183E06BDE8EE083C140E050E052
:10051000BA0183E064DE8EE07CC18091BE00813050
:1005200029F030F0823009F441C072C18FE071C10E
:100530008091BD00813081F028F08230C1F083309D
:1005400011F12DC04091B900417050E060E070E0C1
:1005500084E645DE80E05DC14091B900469541707A
:1005600050E060E070E084E63ADE80E052C1409105
:10057000B90042FB442740F950E060E070E084E6B7
:100580002EDE80E046C14091B90043FB442740F98C
:1005900050E060E070E084E622DE80E03AC140E0B6
:1005A00050E0BA0184E01BDE80E033C18091BD00E1
:1005B000882319F0813059F015C0409189004170AD
:1005C00050E060E070E084E60ADE80E022C1409105
:1005D00089004695417050E060E070E084E6FFDD00
:1005E00080E017C140E050E0BA0184E0F8DD80E02F
:1005F00010C18DE00EC12091BE00222339F040E0F1
:1006000050E0BA0184E0EBDD80E003C12091BD0041
:10061000213441F118F4203441F07EC0223409F431
:100620003FC02C3409F45AC077C00091B40010E0E8
:1006300020E030E0601771078207930761F0609354
:10064000B400198249812091C4003091C500C901CC
:10065000840F911D3DD840E050E0BA0184E6BFDD33
:1006600080E0D7C00091B50010E020E030E06017D6
:1006700071078207930769F06093B50021E0298331
:1006800049812091C4003091C500C901840F911D9A
:100690001FD840E050E0BA0184E6A1DD80E0B9C097
:1006A0000091B60010E020E030E06017710782078B
:1006B000930769F06093B60022E029834981209175
:1006C000C4003091C500C901840F911D01D840E0DC
:1006D00050E0BA0184E683DD80E09BC00091B80061
:1006E00010E020E030E0601771078207930769F09F
:1006F0006093B80024E0298349812091C40030919F
:10070000C500C901840F911DE3D740E050E0BA0154
:1007100084E665DD80E07DC040E050E0BA0184E021
:100720005EDD80E076C08091BE00882339F040E035
:1007300050E0BA0184E053DD80E06BC08091BD00E1
:10074000813449F018F4803409F129C0823461F011
:100750008C3499F024C04091B50050E060E070E026
:1007600084E63DDD80E055C04091B60050E060E099
:1007700070E084E634DD80E04CC04091B80050E089
:1007800060E070E084E62BDD80E043C04091B4007F
:1007900050E060E070E084E622DD80E03AC040E0B6
:1007A00050E0BA0184E01BDD80E033C08091BD00E1
:1007B00081111BC08091C6008093AB0081E38093C0
:1007C000AC0090E39093AD0022E32093AE008093C1
:1007D000AF0036E53093B0008093B1002093B200B3
:1007E0009093B300AEDC80E014C040E450E360E2DC
:1007F00070E184E6F4DC80E00CC040E050E0BA0137
:1008000082E0EDDC80E005C084E003C08EE001C042
:1008100080E00F90DF91CF911F910F910895E091AB
:100820006700F0916800309709F009950895E0EFAE
:10083000F0E088EF90E020E03191230FE817F9070E
:10084000D9F72093F8000895CF93DF93EC019093AC
:1008500004018093030145E050E0BC018DEC90E081
:1008600027D78091CD00823499F082E48093CD0027
:1008700084E08093CE008093CF001092D00082E07D
:100880008093D10045E050E0BE018DEC90E031D77F
:10089000E0916500F0916600309719F08091B50005
:1008A00009958091D1008093D2008091CF008093F0
:1008B000C700DF91CF9108959091D2009093F000FE
:1008C0009091C7009093F1008093F2008091FA001C
:1008D0008093F3007093F4006093F5005093F6005A
:1008E0004093F700A4DF9BDF08959091F900809179
:1008F000C700981315C0E9EFF0E081E091E020E037
:100900003191230FE817F907D9F7809101012817D2
:1009100049F040E050E0BA0181E0CEDF83E0089585
:1009200082E0089580E008950F931F93CF93DF93A3
:100930001F92CDB7DEB72091FD006091FE00862F9B
:1009400090E0A0E0B0E0DC0199278827B22B20914D
:100950000001822B2091FF00BC01CD01722B60931E
:10096000C9007093CA008093CB009093CC00209173
:10097000FA00293009F4B2C178F4243009F4B7C27E
:1009800028F42130F9F0223021F1AAC2253041F1BA
:10099000263009F46CC0A4C22E3009F4E0C038F44B
:1009A0002A3009F433C22D3009F496C199C228388F
:1009B00009F46FC22E3F21F02F3009F091C220C1FF
:1009C0008EEF98C240E050E0BA0184E675DF81E026
:1009D00091C240E050E0BA0184E66EDF82E08AC254
:1009E0002091FC00222339F040E050E0BA0184E07D
:1009F00063DF80E07FC22091FB002630E9F028F41D
:100A0000243041F0253079F02BC02730F1F02C381C
:100A100029F126C06093DB007093DC008093DD0039
:100A20009093DE001DC06093DF007093E000809320
:100A3000E1009093E20014C06093E3007093E4003F
:100A40008093E5009093E6000BC06093E7007093FD
:100A5000E8008093E9009093EA0002C06093EB0005
:100A600040E050E0BA0184E627DF80E043C2809195
:100A7000FC00882339F040E050E0BA0184E01CDF3C
:100A800080E038C28091FB00863049F130F4843038
:100A9000F1F1C8F4813059F05BC08C3809F443C0DF
:100AA000843C09F449C0873009F052C024C0409109
:100AB000D7005091D8006091D9007091DA0084E697
:100AC000FBDE80E017C24091DF005091E0006091B2
:100AD000E1007091E20084E6EFDE80E00BC240911D
:100AE000E3005091E4006091E5007091E60084E637
:100AF000E3DE80E0FFC14091E7005091E8006091A3
:100B0000E9007091EA0084E6D7DE80E0F3C140910D
:100B1000DB005091DC006091DD007091DE0084E626
:100B2000CBDE80E0E7C14091EB0050E060E070E098
:100B300084E6C2DE80E0DEC14091EC005091ED0021
:100B40006091EE007091EF0084E6B6DE80E0D2C1E5
:100B500040E050E0BA0184E0AFDE80E0CBC12091FC
:100B6000FC00213059F018F0223079F042C040E00A
:100B700050E0BA0183E0A0DE8EE0BCC140E050E06E
:100B8000BA0183E099DE8EE0B5C12091FB002223FB
:100B900019F02130A1F026C021E0672B682B692BCA
:100BA00009F420E08091C80020FB80F98093C80000
:100BB00040E050E0BA0184E67FDE8EE09BC121E098
:100BC000672B682B692B09F420E08091C80020FB7B
:100BD00081F98093C80040E050E0BA0184E66CDE01
:100BE0008EE088C140E050E0BA0183E065DE8EE02F
:100BF00081C140E050E0BA0183E05EDE8EE07AC160
:100C00008091FC00813029F030F0823009F441C03D
:100C100070C18FE06FC18091FB00813081F028F0BE
:100C20008230C1F0833011F12DC04091020141703A
:100C300050E060E070E084E63FDE80E05BC1409120
:100C400002014695417050E060E070E084E634DED9
:100C500080E050C14091020142FB442740F950E03E
:100C600060E070E084E628DE80E044C1409102014B
:100C700043FB442740F950E060E070E084E61CDE6E
:100C800080E038C140E050E0BA0184E015DE80E049
:100C900031C18091FB00882319F0813059F015C0D3
:100CA0004091C800417050E060E070E084E604DEEE
:100CB00080E020C14091C8004695417050E060E05E
:100CC00070E084E6F9DD80E015C140E050E0BA0153
:100CD00084E0F2DD80E00EC18DE00CC12091FC00CB
:100CE000222339F040E050E0BA0184E0E5DD80E005
:100CF00001C12091FB00213441F118F4203441F06E
:100D00007EC0223409F43FC02C3409F45AC077C0A5
:100D10000091CD0010E020E030E0601771078207FD
:100D2000930761F06093CD001982498120910301FE
:100D300030910401C901840F911DCAD440E050E0F4
:100D4000BA0184E6B9DD80E0D5C00091CE0010E0A4
:100D500020E030E0601771078207930769F0609325
:100D6000CE0021E0298349812091030130910401C3
:100D7000C901840F911DACD440E050E0BA0184E673
:100D80009BDD80E0B7C00091CF0010E020E030E0B4
:100D9000601771078207930769F06093CF0022E024
:100DA000298349812091030130910401C901840FF5
:100DB000911D8ED440E050E0BA0184E67DDD80E0F4
:100DC00099C00091D10010E020E030E06017710779
:100DD0008207930769F06093D10024E02983498159
:100DE0002091030130910401C901840F911D70D439
:100DF00040E050E0BA0184E65FDD80E07BC040E087
:100E000050E0BA0184E058DD80E074C08091FC00BD
:100E1000882339F040E050E0BA0184E04DDD80E005
:100E200069C08091FB00813449F018F4803409F1E5
:100E300029C0823461F08C3499F024C04091CE00F6
:100E400050E060E070E084E637DD80E053C0409120
:100E5000CF0050E060E070E084E62EDD80E04AC024
:100E60004091D10050E060E070E084E625DD80E054
:100E700041C04091CD0050E060E070E084E61CDDB0
:100E800080E038C040E050E0BA0184E015DD80E049
:100E900031C08091FB0081111BC08091D2008093F2
:100EA000F00081E38093F10090E39093F20022E35D
:100EB0002093F3008093F40036E53093F50080939F
:100EC000F6002093F7009093F800A9DC80E012C0B0
:100ED00040E450E360E270E184E6EEDC80E00AC0CA
:100EE00040E050E0BA0182E0E7DC80E003C084E04B
:100EF00001C080E00F90DF91CF911F910F91089575
:100F000020916D0090916E0081E0291380E008959A
:100F10009091720080917300981761F09091730026
:100F20009F5F9F70E92FF0E0E256FE4F8081909323
:100F30007300089580E00895909172009F5F9F7004
:100F4000E92FF0E0E256FE4F8083909372000895FF
:100F500090917100E92FF0E0EB5FFE4F80819F5F81
:100F600090937100089580916A0080FD0AC080917D
:100F70006A00816080936A00929A10927100E8DFA3
:100F80008CB90895882311F0579A089557980895B9
:100F9000882311F0569A0895569808951F920F923B
:100FA0000FB60F9211242F933F934F935F936F933C
:100FB0007F938F939F93AF93BF93EF93FF9385E0BE
:100FC00080936C008BB190916B00892B80936B00A8
:100FD0008CB1B2DFFF91EF91BF91AF919F918F9153
:100FE0007F916F915F914F913F912F910F900FBE25
:100FF0000F901F9018951F920F920FB60F92112409
:101000002F933F934F935F936F937F938F939F9310
:10101000AF93BF93EF93FF9380916A0080FF0DC061
:1010200080917100893038F080916A008E7F8093C2
:101030006A00929802C08CDF8CB9FF91EF91BF914A
:10104000AF919F918F917F916F915F914F913F9160
:101050002F910F900FBE0F901F90189587E089B9C0
:101060008AB188618AB981E08DDF81E091DF1092D9
:101070006B000895BF92CF92DF92EF92FF920F9391
:101080001F93CF93DF9390916F008091700098171A
:1010900041F180916A0080FD24C0509170005F5F33
:1010A0005F70852F90E09C01220F331F220F331FAA
:1010B000220F331F820F931F82559E4F9C01275F83
:1010C0003F4FFC01DF01A81BB90B4191AB5FBE4F45
:1010D0004C93E217F307B1F7509370001092710030
:1010E00042DF80916A0083FD4AC080917200909136
:1010F0007300891B8F70893008F441C0B0906D0077
:1011000081E08B0D8F70B82EE82EF12CF701EE0FD9
:10111000FF1FEE0FFF1FEE0FFF1FEE0DFF1DCF0194
:10112000825F9E4F6C018C01075F1F4FEC01F0DE68
:101130008993C017D107D9F7F60190E080E021919B
:10114000920F8F5F8830D9F7F701EE0FFF1FEE0F78
:10115000FF1FEE0FFF1FEE0DFF1DE25FFE4F8085AC
:10116000981308C080916A00886080936A00B092EA
:101170006D0005C080916A00806180936A00DF91F4
:10118000CF911F910F91FF90EF90DF90CF90BF9084
:10119000089580916C00882341F080916C0081500B
:1011A00080936C001092690008958091690081110C
:1011B00007C0809172008093730081E08093690082
:1011C000089580916E008F5F8F7090E09C01220FD8
:1011D000331F220F331F220F331F820F931F825F93
:1011E0009E4F089580916E008F5F8F7080936E0088
:1011F00080916D0090916E00891B8F7029F4909101
:101200006A00977F90936A000895FC0150916F00E7
:101210005F5F5F70852F90E0DC01AA0FBB1FAA0FF4
:10122000BB1FAA0FBB1FA80FB91FA255BE4F30E0AE
:1012300020E040814D934191340F2F5F2830C9F752
:10124000FC01EE0FFF1FEE0FFF1FEE0FFF1F8E0FB3
:101250009F1FFC01E255FE4F308750936F000895A9
:1012600090E08B30910520F5FC01ED5EFF4F099475
:101270008FE589B908958FE389B908958FE289B917
:1012800008958FE189B9089587E189B908958FE0BC
:1012900089B908958BE089B9089587E089B90895DF
:1012A00083E089B9089582E089B9089519B808954D
:1012B0008FE289B908958BEA90E0A7DF089580EF67
:1012C00090E0A3DF08951F920F920FB60F921124A2
:1012D0008F9380917400853030F081E080937600A8
:1012E0001092740003C08F5F809374008F910F90F1
:1012F0000FBE0F901F90189582E08093750080912B
:1013000040028260809340020895969A26E686EE17
:1013100090E0215080409040E1F782B38F7982BB0A
:101320000895959A26E686EE90E021508040904000
:10133000E1F782B38F7982BB0895CF93DF93E0DD2D
:101340008111F0C03EDFEBEBF0E0DC01C9EFD0E053
:1013500084EC90E02C9121932D912993E817F907C3
:10136000C9F740DF55D78111B1C0C6DF70D78E30C5
:1013700021F08F3009F487C0D5C08091BE00813044
:1013800009F05BC08091BD00882319F0813049F1DC
:101390004FC08091A7009091A800A091A900B091A2
:1013A000AA0089379105A105B10564F088E790E0AE
:1013B000A0E0B0E08093A7009093A800A093A900BC
:1013C000B093AA004091A7005091A8006091A90095
:1013D0007091AA0050933F0240933E0284E6FFD6EC
:1013E0002CC08091A7009091A800A091A900B09175
:1013F000AA00CD97A105B10564F08CE390E0A0E0D0
:10140000B0E08093A7009093A800A093A900B093A8
:10141000AA004091A7005091A8006091A900709186
:10142000AA00509342024093410284E6D8D605C0F8
:1014300040E050E0BA0183E0D2D68091BE00823015
:1014400009F070C08091BD00882319F0813071F0DF
:1014500069C08091890080FF04C081E080934502CB
:1014600061C0109245021BBC1ABC5CC0809189000F
:1014700081FF04C081E08093440254C01092440272
:1014800019BC18BC4FC08091BD00883038F41AD602
:10149000AC0160E070E084E6A2D644C0883039F444
:1014A0004AB55BB560E070E084E699D63BC0893010
:1014B00039F448B559B560E070E084E690D632C0A2
:1014C00040E050E0BA0183E08AD62CC00EDA8111E8
:1014D00029C012DF29DA8E3029F58091C80080FFFB
:1014E00014C08091430281111DC00FDF81E0809301
:1014F0004302809140028F7B8068809340028091FC
:101500006A008F7E80936A000DC080914302882319
:1015100049F007DF10924302809140028F77806488
:1015200080934002DF91CF91089580916A0084FFFB
:1015300006C0809140028E7F8093400205C080915A
:10154000400281608093400280914502882361F0CF
:1015500080913E0290913F029BBD8ABD80914002E6
:1015600084608093400207C01BBC1ABC809140027B
:101570008B7F8093400280914402882361F08091A8
:1015800041029091420299BD88BD809140028061E4
:101590008093400207C019BC18BC809140028F7E26
:1015A0008093400284E08ED58132934020F484E021
:1015B00089D5039730F4809140028860809340027F
:1015C00005C080914002877F8093400283E07AD5F6
:1015D0008132934020F483E075D5039730F48091F5
:1015E000400280628093400205C0809140028F7D5E
:1015F0008093400280917500882351F08150809340
:101600007500811105C0809140028D7F809340025A
:10161000089580917600882331F010927600B9DD2C
:101620005FD583DF1CD5089587E087BB18BA86EEA7
:1016300081BB1092400213D5109243020FDD71D589
:101640002CD510923F0210923E0210924502109249
:101650004202109241021092440280E399E090937A
:101660006200809361008BE599E090936400809321
:1016700063008FE599E0909368008093670080E1B4
:1016800090E074D580E290E0DFD883E090E09BBDED
:101690008ABD99BD88BD78940895C6DF80914002C7
:1016A0008F77816480934002B4DFE4DC46DEFCCFB8
:1016B000DC01CB01FC01E199FECF06C0FFBBEEBB14
:1016C000E09A31960DB20D9241505040B8F708950E
:1016D000262FE199FECF9FBB8EBBE09A01970DB2FA
:1016E000021631F02DBB0FB6F894E29AE19A0FBEC4
:1016F0000895DC01CB0102C02D9105D0415050402E
:10170000D8F70895262FE199FECF9FBB8EBB2DBB46
:101710000FB6F894E29AE19A0FBE01960895F894F4
:02172000FFCFF9
:00000001FF
