:100000001CC02BC05DC529C028C008C526C025C09E
:1000100024C023C022C0B3C320C0DEC31EC01DC085
:100020001CC01BC01AC0DAC4DCC4DEC4E0C4E2C415
:10003000E4C4E6C4E8C4EAC4ECC411241FBECFE59E
:10004000D4E0DEBFCDBF22E0A0E6B0E001C01D924B
:10005000A036B207E1F771D5F8C5D2CF13BE1BBCED
:100060001ABC19BC18BC80E990E097BD86BD1FBCC6
:100070008CE18EBD89B7806289BF15BC0895EFE819
:10008000F0E087E990E020E03191230FE817F907CD
:10009000D9F7209397000895CF93DF93EC019093C5
:1000A000A9008093A80045E050E0BC0188E990E0F9
:1000B00095D580919800823499F082E480939800DD
:1000C0001092990081E080939A0010929B0082E048
:1000D00080939C0045E050E0BE0188E990E09FD508
:1000E000E0916000F0916100309719F080919900E3
:1000F000099580919C008093AA0080919A0080933A
:100100009E00DF91CF9108959091AA0090938F0067
:1001100090919E0090939000809391008091A00018
:100120008093920070939300609394005093950095
:1001300040939600A4DF81E080936200089590913F
:100140009F0080919E00981315C0EFE9F0E087EAC8
:1001500090E020E03191230FE817F907D9F780915B
:10016000A700281749F040E050E0BA0181E0CCDF59
:1001700083E0089582E0089580E00895CF93DF93AF
:100180001F92CDB7DEB72091A3008091A40090E02C
:10019000A0E0B0E0DC0199278827B22B2091A600CF
:1001A000822B2091A500922B80938B0090938C0042
:1001B000A0938D00B0938E002091A000293009F407
:1001C0008AC178F4243009F495C228F42130F9F07A
:1001D000223021F188C2253041F1263009F46CC06B
:1001E00082C22E3009F4E0C038F42A3009F40FC27C
:1001F0002D3009F46EC177C2283809F44BC22E3F66
:1002000021F02F3009F06FC2F8C08EEF76C240E0C7
:1002100050E0BA0184E678DF81E06FC240E050E050
:10022000BA0184E671DF82E068C22091A200222335
:1002300039F040E050E0BA0184E066DF80E05DC262
:100240002091A1002630E9F028F4243041F0253037
:1002500079F02BC02730F1F02C3829F126C080939B
:10026000760090937700A0937800B09379001DC03A
:1002700080937A0090937B00A0937C00B0937D00E4
:1002800014C080937E0090937F00A0938000B09371
:1002900081000BC08093820090938300A093840020
:1002A000B093850002C08093860040E050E0BA0120
:1002B00084E62ADF80E021C28091A200882339F001
:1002C00040E050E0BA0184E01FDF80E016C2809178
:1002D000A100863049F130F48430F1F1C8F4813066
:1002E00059F05BC08C3809F443C0843C09F449C020
:1002F000873009F052C024C04091720050917300C1
:10030000609174007091750084E6FEDE80E0F5C1B6
:1003100040917A0050917B0060917C0070917D004B
:1003200084E6F2DE80E0E9C140917E0050917F00DA
:10033000609180007091810084E6E6DE80E0DDC19E
:1003400040918200509183006091840070918500FB
:1003500084E6DADE80E0D1C14091760050917700EA
:10036000609178007091790084E6CEDE80E0C5C1AE
:100370004091860050E060E070E084E6C5DE80E0F9
:10038000BCC14091870050918800609189007091B4
:100390008A0084E6B9DE80E0B0C140E050E0BA01F6
:1003A00084E0B2DE80E0A9C12091A200223039F0C1
:1003B00040E050E0BA0184E0A7DE8EE09EC12091CB
:1003C000A100211113C021E0892B8A2B8B2B09F46A
:1003D00020E080916D0020FB80F980936D0040E06B
:1003E00050E0BA0184E690DE8EE087C140E050E044
:1003F000BA0184E089DE8EE080C18091A200813064
:1004000029F030F0823009F441C076C18FE075C127
:100410008091A100813081F028F08230C1F08330DA
:1004200011F12DC040919D00417050E060E070E0FE
:1004300084E66ADE80E061C140919D00469541708E
:1004400050E060E070E084E65FDE80E056C14091FD
:100450009D0042FB442740F950E060E070E084E6F4
:1004600053DE80E04AC140919D0043FB442740F9A0
:1004700050E060E070E084E647DE80E03EC140E0AE
:1004800050E0BA0184E040DE80E037C18091A100F5
:10049000882319F0813059F015C040916D004170EA
:1004A00050E060E070E084E62FDE80E026C14091FD
:1004B0006D004695417050E060E070E084E624DE17
:1004C00080E01BC140E050E0BA0184E01DDE80E026
:1004D00014C18DE012C12091A200222339F040E026
:1004E00050E0BA0184E010DE80E007C12091A10055
:1004F000213449F118F4203441F082C0223409F447
:1005000041C02C3409F45DC07BC04091980050E09C
:1005100060E070E084179507A607B70769F0E8E97F
:10052000F0E080831982608129818091A8009091F8
:10053000A900820F911D62D340E050E0BA0184E629
:10054000E3DD80E0DAC04091990050E060E070E0C7
:1005500084179507A607B70771F0E9E9F0E08083F3
:1005600081E08983608129818091A8009091A90010
:10057000820F911D43D340E050E0BA0184E6C4DD10
:1005800080E0BBC040919A0050E060E070E08417CA
:100590009507A607B70771F0EAE9F0E0808382E0EB
:1005A0008983608129818091A8009091A900820FA0
:1005B000911D24D340E050E0BA0184E6A5DD80E03F
:1005C0009CC040919C0050E060E070E0841795076B
:1005D000A607B70771F0ECE9F0E0808384E0898337
:1005E000608129818091A8009091A900820F911DBE
:1005F00005D340E050E0BA0184E686DD80E07DC0AE
:1006000040E050E0BA0184E07FDD80E076C0809178
:10061000A200882339F040E050E0BA0184E074DDA4
:1006200080E06BC08091A100813449F018F48034DF
:1006300009F129C0823461F08C3499F024C04091D2
:10064000990050E060E070E084E65EDD80E055C037
:1006500040919A0050E060E070E084E655DD80E073
:100660004CC040919C0050E060E070E084E64CDDBE
:1006700080E043C04091980050E060E070E084E684
:1006800043DD80E03AC040E050E0BA0184E03CDD68
:1006900080E033C08091A10081111DC08091AA002B
:1006A00080938F0081E38093900090E3909391007A
:1006B00022E3209392008093930036E530939400D8
:1006C00080939500209396009093970081E080930B
:1006D000620080E012C040E450E360E270E184E632
:1006E00013DD80E00AC040E050E0BA0182E00CDD9A
:1006F00080E003C084E001C080E00F90DF91CF91E3
:10070000089590916B009F5F9F77E92FF0E0E3548D
:10071000FF4F808190936B00089590916A009F5FD6
:100720009F77E92FF0E0E354FF4F808390936A00B6
:10073000089590916900E92FF0E0E555FF4F808121
:100740009F5F9093690008958091630080FD0AC0C7
:1007500080916300816080936300929A1092690097
:10076000E8DF8CB90895882311F0579A08955798B7
:100770000895882311F0569A0895569808951F9267
:100780000F920FB60F9211242F933F934F935F93C5
:100790006F937F938F939F93AF93BF93EF93FF9349
:1007A00085E0809366008BB190916400892B8093E3
:1007B00064008CB1B2DFFF91EF91BF91AF919F9137
:1007C0008F917F916F915F914F913F912F910F90FA
:1007D0000FBE0F901F9018951F920F920FB60F9299
:1007E00011242F933F934F935F936F937F938F9336
:1007F0009F93AF93BF93EF93FF938091630080FF2C
:100800000DC080916900893038F0809163008E7F3F
:1008100080936300929802C08CDF8CB9FF91EF91B6
:10082000BF91AF919F918F917F916F915F914F9108
:100830003F912F910F900FBE0F901F90189583E05E
:1008400089B98AB188618AB981E08DDF81E091DF61
:100850001092640008950F931F93CF93DF938091BC
:10086000680090916700981759F19091630090FD8E
:1008700027C09091630092FD23C08F5F482F4F7176
:10088000842F90E09C01220F331F220F331F220F71
:10089000331F820F931F835C9E4F409368009C011F
:1008A000275F3F4FFC01DF01A81BB90B4191A55504
:1008B000BF4F4C93E217F307B1F71092690044DF82
:1008C0008091630083FD2EC080916A0090916B003F
:1008D000891B893038F10DEB10E0C4EBD0E011DF5B
:1008E0008993C017D107D9F78CEB90E0E4EBF0E0E7
:1008F00020E03191230FE817F907D9F78091BC0068
:1009000028130BC0809163008860809363008091FE
:1009100063008B7F8093630005C0809163008061DA
:1009200080936300DF91CF911F910F910895809183
:10093000630082FF0EC08091650081508093650046
:1009400080916500811105C0809163008B7F809349
:10095000630080916600882331F0809166008150A9
:1009600080936600089580916A0080936B000895DB
:1009700084EB90E00895FC01509167005F5F5F7128
:10098000852F90E0DC01AA0FBB1FAA0FBB1FAA0F87
:10099000BB1FA80FB91FA35CBE4F30E020E0408111
:1009A0004D934191340F2F5F2830C9F7FC01EE0FB2
:1009B000FF1FEE0FFF1FEE0FFF1F8E0F9F1FFC018B
:1009C000E35CFE4F308750936700089590E08A30D3
:1009D000910508F5FC01ED5EFF4F09948FE289B99E
:1009E00008958FE189B9089587E189B908958FE065
:1009F00089B908958BE089B9089587E089B9089588
:100A000085E089B9089583E089B9089581E089B9BD
:100A1000089519B8089587E189B908951F920F9232
:100A20000FB60F9211248F9381E080936C008F9109
:100A30000F900FBE0F901F901895CF9315BA86E0B8
:100A400084BBC1E0C7BB12BA86E881BBF8DE86EE84
:100A500094E0909361008093600080E190E01CDB63
:100A6000FDDA85B78C6085BF8BB780688BBFC0937C
:100A70005E02979AC0987894CF910895A99A8FEFC3
:100A80009FE80197F1F700C0000085B3897F85BB1F
:100A9000C09A97980895AA9A8FEF9FE80197F1F767
:100AA00000C0000085B3897F85BB979AC0980895E0
:100AB00080916C00882319F010926C0038DF089543
:100AC0001F920F920FB60F9211242F933F934F93C3
:100AD0005F936F937F938F939F93AF93BF93EF93A6
:100AE000FF9305B603FE0DC0C9DF81E080935E026F
:100AF00080919D00816080939D0085B7837F85BF35
:100B00000BC0C9DF10925E0280919D008E7F8093A2
:100B10009D0085B78C6085BFFF91EF91BF91AF912C
:100B20009F918F917F916F915F914F913F912F9105
:100B30000F900FBE0F901F9018957FDFC8EAD0E08E
:100B40000F2EF2EAEF2EF0E0FF2EF02D0F2EF1EA3D
:100B5000CF2EF0E0DF2EF02D0FE910E0BB24B39490
:100B6000A7DF79DE8091630083FF2EC001DFDC0107
:100B7000F8018D918193EC17FD07D9F780916300FF
:100B8000877F80936300DBDA81111EC0F7DA8E3035
:100B9000D9F4F70180818230B9F4F60180818111A6
:100BA00013C080916D0080FF08C080915E028111AA
:100BB0000BC064DFB0925E0207C080915E028823A2
:100BC00019F069DF10925E0280916200882341F281
:100BD000109262008FE890E0CEDEC2CFDC01CB0144
:100BE000FC01E199FECF06C0FFBBEEBBE09A319657
:100BF0000DB20D9241505040B8F70895262FE1995B
:100C0000FECF9FBB8EBBE09A01970DB2021631F06A
:100C10002DBB0FB6F894E29AE19A0FBE0895DC015D
:100C2000CB0102C02D9105D041505040D8F7089516
:100C3000262FE199FECF9FBB8EBB2DBB0FB6F8943C
:100C4000E29AE19A0FBE01960895F894FFCFFFFF54
:100C5000FFFFFFFFFFFFFFFFFFFFFFFFFFFFFFFFA4
:100C6000FFFFFFFFFFFFFFFFFFFFFFFFFFFFFFFF94
:100C7000FFFFFFFFFFFFFFFFFFFFFFFFFFFFFFFF84
:100C8000FFFFFFFFFFFFFFFFFFFFFFFFFFFFFFFF74
:00000001FF
