:100000001DC037C036C035C034C0A3C732C031C0F0
:1000100030C02FC02EC06EC02CC093C02AC029C0D3
:1000200028C027C026C0B6C1B7C1C8C1B7C1B8C1B2
:10003000B9C1BAC1BBC1BCC1BDC1BEC111241FBEC3
:10004000CFE5D4E0DEBFCDBF10E0A0E6B0E0EEE942
:10005000F3E102C005900D92A036B107D9F712E086
:10006000A0E6B0E001C01D92A634B107E1F74BD97C
:1000700094C9C6CFF894E0E4F2E0408128B3302F71
:100080002E7F316052B3632F5F77606878E028BBC2
:10009000441F52BB08F462BB38BB7A95C1F7789411
:1000A00040E952BB00004A95E9F728BB00000895DB
:1000B000909166008091650020E0981709F421E096
:1000C000822F08958091690080FD13C0809169009E
:1000D000816080936900929A109262008091620020
:1000E000E82FF0E0E958FF4F90818F5F8093620026
:1000F0009CB908951F920F920FB60F9211248F93FF
:100100009F93EF93FF9385E0809367009BB180916D
:100110006800892B809368009CB1809161008F5F9B
:100120008F70E0E1F1E0E80FF11D908380936100B2
:10013000FF91EF919F918F910F900FBE0F901F90A5
:1001400018951F920F920FB60F9211248F939F93C1
:10015000EF93FF938091690080FF16C08091620049
:10016000893038F0809169008E7F80936900929881
:100170000BC080916200E82FF0E0E958FF4F9081BA
:100180008F5F809362009CB9FF91EF919F918F9157
:100190000F900FBE0F901F90189587E089B98AB114
:1001A00088618AB9579A569A10926800089590917A
:1001B0006400809163009817F9F08091690080FDD8
:1001C0001BC0909163009F5F9F7089E0989FD00152
:1001D0001124A05EBE4F20E030E08D91F901E95876
:1001E000FF4F80832F5F3F4F29303105B1F7909348
:1001F00063001092620066DF8091690083FD56C043
:100200008091610090916000891B8F70893008F4A3
:100210004DC0709166007F5F7F70472F50E09A015C
:1002200093E0220F331F9A95E1F7240F351F2058D2
:100230003F4FD90160E09091610080916000981774
:1002400011F4E0E00BC0809160008F5F8F70E82FA9
:10025000F0E0E05FFE4FE08180936000EC936F5F21
:10026000693011F01196E7CFF90190E020E081911B
:10027000280F9F5F9830D9F7FA0183E0EE0FFF1F38
:100280008A95E1F7E40FF51FE058FF4F80852817A6
:1002900041F48091690088608093690070936600E2
:1002A000089580916900806180936900089580912C
:1002B0006700882341F08091670081508093670038
:1002C00010926A00089580916A00882339F4809121
:1002D00061008093600081E080936A0008958091BE
:1002E00065008F5F90E08F7090709C0143E0220F5B
:1002F000331F4A95E1F7280F391F20583F4FC90196
:100300000895809165008F5F8F7080936500909154
:10031000660080916500981B9F7029F480916900A8
:10032000877F80936900892F0895DC019091640094
:100330009F5F9F70492F50E0FA0183E0EE0FFF1F8F
:100340008A95E1F7E40FF51FE05EFE4F60E089E07B
:10035000989F90011124285D3E4F8C9181938D913F
:10036000680FE217F307C9F7FA0173E0EE0FFF1FFA
:100370007A95E1F7E40FF51FE05EFE4F60879093FA
:1003800064000895E82FF0E0EB30F105B8F4ED5E7D
:10039000FF4F09948FE513C08FE311C08FE10FC0A9
:1003A00087E10DC08FE00BC08BE009C087E007C07C
:1003B00083E005C082E003C019B808958FE289B9CF
:1003C0000895E0916B00F0916C00309709F0099569
:1003D00008959091ED019093D2019091E101909355
:1003E000D3018093D4018091E3018093D501872FBD
:1003F000BB2787FDB0959B2FAB2F8093D601CB01F8
:10040000BB2797FDB095AB2F8093D701BB2777FD16
:10041000BA95A72F962F852F8093D8014093D901A5
:10042000E2EDF1E090E08191980F81E0EA3DF8077C
:10043000D1F79083C6DF08959091E2018091E101A8
:10044000981711F082E00895E2EEF1E090E08191DA
:10045000980F81E0EA3EF807D1F78081981711F4F0
:1004600080E0089581E040E050E060E070E0B1DFBE
:1004700083E0089584E640E050E060E070E0A9DFAA
:100480000895DF93CF930F92CDB7DEB78091E60149
:1004900090E0A0E0B0E0782F6627552744278091B0
:1004A000E70190E0A0E0B0E0DC0199278827482B25
:1004B000592B6A2B7B2B8091E90190E0A0E0B0E002
:1004C000482B592B6A2B7B2B8091E80190E0A0E010
:1004D000B0E0BA2FA92F982F8827482B592B6A2BC9
:1004E0007B2B4093CE015093CF016093D00170934A
:1004F000D1018091E301893009F439C18A3080F457
:10050000843019F1853030F4813019F1823009F0EE
:10051000CEC127C0853069F1863009F0C8C166C0F8
:100520008E3009F4B7C08F3038F48A3009F477C1BF
:100530008D3009F0BCC119C1883809F494C18E3FCF
:1005400031F08F3009F0B3C1D7C084E0B7C18EEF6E
:10055000B5C184E640E050E060E070E03ADF81E061
:10056000ADC184E640E050E060E070E032DF82E060
:10057000A5C18091E501882309F073C18091E40150
:100580008630F1F0873028F4843041F0853061F511
:100590000EC08730F1F08C3839F524C04093B90192
:1005A0005093BA016093BB017093BC011DC040938E
:1005B000BD015093BE016093BF017093C00114C090
:1005C0004093C1015093C2016093C3017093C40171
:1005D0000BC04093C5015093C6016093C70170934F
:1005E000C80102C04093C90145DF67C18091E501A0
:1005F000882309F036C18091E401863021F18730EB
:1006000040F4843091F18530A8F4813009F029C19B
:1006100008C08C3899F1843CA1F1873009F021C1E0
:100620001BC04091B5015091B6016091B701709126
:10063000B8010CC14091BD015091BE016091BF0154
:100640007091C00103C14091C1015091C2016091FC
:10065000C3017091C401FAC04091C5015091C60117
:100660006091C7017091C801F1C04091B9015091EA
:10067000BA016091BB017091BC01E8C04091C90111
:10068000E2C04091CA015091CB016091CC017091C0
:10069000CD01DCC08091E501813061F1813020F134
:1006A000823011F58091E401882319F08130E1F462
:1006B0000BC090E0411551056105710509F091E00D
:1006C0008091B0018E7F0BC090E04115510561050E
:1006D000710509F091E0990F8091B0018D7F892B10
:1006E0008093B001C7DE06C083E040E050E060E0E8
:1006F00070E06FDE8EE0E2C08091E501813031F084
:10070000813030F0823009F0D8C01FC08FE0D6C0F1
:100710008091E401813059F0813030F0823051F025
:10072000833009F09EC00BC04091E00118C0409199
:10073000E00119C04091E0014695469510C04091F6
:10074000E0014695469546950AC08091E4018823CC
:1007500021F0813009F085C004C04091B0014170A2
:1007600072C04091B0014695FACF8DE0A7C080914C
:10077000E501882309F075C08091E401823441F1DC
:10078000833430F4803441F0813409F06AC012C0FF
:100790008C3409F066C02AC08091DB0190E0A0E0B3
:1007A000B0E0481759076A077B07B9F14093DB01AE
:1007B00019822AC08091DC0190E0A0E0B0E04817E7
:1007C00059076A077B0749F14093DC0181E01BC0B0
:1007D0008091DD0190E0A0E0B0E0481759076A077A
:1007E0007B07D9F04093DD0182E00DC08091DF01ED
:1007F00090E0A0E0B0E0481759076A077B0769F06E
:100800004093DF0184E0898329818091EB019091FD
:10081000EC01820F911D642F99D584E649C0809127
:10082000E5018823F1F48091E401823489F0833476
:1008300028F4803499F08134A1F403C08C3489F415
:100840000AC04091DC0150E060E070E084E634C012
:100850004091DD01F8CF4091DF01F5CF4091DB0100
:10086000F2CF84E025C08091E4018823D1F4809107
:10087000ED018093D20191E39093D30130E3309363
:10088000D40122E32093D5019093D60186E580938D
:10089000D7019093D8012093D9013093DA0191DDEB
:1008A0000CC084E640E450E360E270E105C082E001
:1008B00040E050E060E070E08CDD80E00F90CF9190
:1008C000DF910895CF93DF93EC019093EC01809337
:1008D000EB018BED91E0BE0145E050E027D5809122
:1008E000DB018234A1F082E48093DB0184E0809319
:1008F000DC0183E08093DD011092DE0182E08093D1
:10090000DF018BED91E0BE0145E050E030D5E09194
:100910006D00F0916E00309719F08091DC0109951F
:100920008091DF018093ED018091DD018093E101F1
:10093000DF91CF910895E0916F00F09170003097B2
:1009400009F0099508959091F901909317029091FB
:10095000EE019093180280931902809121028093F6
:100960001A02872FBB2787FDB0959B2FAB2F809353
:100970001B02CB01BB2797FDB095AB2F80931C02C8
:10098000BB2777FDBA95A72F962F852F80931D0241
:1009900040931E02E7E1F2E090E08191980F82E03F
:1009A000EF31F807D1F79083C6DF089590912002C8
:1009B0008091EE01981711F082E00895E0E2F2E0F4
:1009C00090E08191980F82E0E832F807D1F78081BA
:1009D000981711F480E0089581E040E050E060E075
:1009E00070E0B1DF83E0089584E640E050E060E02D
:1009F00070E0A9DF0895DF93CF930F92CDB7DEB7F4
:100A00008091240290E0A0E0B0E0782F662755277F
:100A100044278091250290E0A0E0B0E0DC01992716
:100A20008827482B592B6A2B7B2B8091270290E03B
:100A3000A0E0B0E0482B592B6A2B7B2B809126023B
:100A400090E0A0E0B0E0BA2FA92F982F8827482B7C
:100A5000592B6A2B7B2B4093F0015093F10160934B
:100A6000F2017093F30180912102893009F439C1B8
:100A70008A3080F4843019F1853030F4813019F1F6
:100A8000823009F0CEC127C0853069F1863009F087
:100A9000C8C166C08E3009F4B7C08F3038F48A30D0
:100AA00009F477C18D3009F0BCC119C1883809F447
:100AB00094C18E3F31F08F3009F0B3C1D7C084E0CC
:100AC000B7C18EEFB5C184E640E050E060E070E071
:100AD0003ADF81E0ADC184E640E050E060E070E0E4
:100AE00032DF82E0A5C180912302882309F073C11F
:100AF000809122028630F1F0873028F4843041F072
:100B0000853061F50EC08730F1F08C3839F524C09E
:100B10004093020250930302609304027093050213
:100B20001DC0409306025093070260930802709321
:100B3000090214C040930A0250930B0260930C0206
:100B400070930D020BC040930E0250930F026093FE
:100B500010027093110202C04093120245DF67C178
:100B600080912302882309F036C1809122028630C9
:100B700021F1873040F4843091F18530A8F4813040
:100B800009F029C108C08C3899F1843CA1F1873063
:100B900009F021C11BC04091FE015091FF016091FD
:100BA0000002709101020CC14091060250910702AF
:100BB000609108027091090203C140910A025091AC
:100BC0000B0260910C0270910D02FAC040910E026E
:100BD00050910F026091100270911102F1C040918A
:100BE0000202509103026091040270910502E8C074
:100BF00040911202E2C040911302509114026091A0
:100C0000150270911602DCC080912302813031F10F
:100C1000813020F1823011F580912202882319F071
:100C20008130E1F40BC090E041155105610571057B
:100C300009F091E08091EF018E7F0BC090E04115AB
:100C400051056105710509F091E0990F8091EF015F
:100C50008D7F892B8093EF01C7DE06C083E040E0E3
:100C600050E060E070E06FDE8EE0E2C08091230231
:100C7000813031F0813030F0823009F0D8C01FC0AF
:100C80008FE0D6C080912202813059F0813030F05F
:100C9000823051F0833009F09EC00BC04091290290
:100CA00018C04091290219C04091290246954695E5
:100CB00010C0409129024695469546950AC08091FC
:100CC0002202882321F0813009F085C004C04091C0
:100CD000EF01417072C04091EF014695FACF8DE06F
:100CE000A7C080912302882309F075C08091220259
:100CF000823441F1833430F4803441F0813409F09E
:100D00006AC012C08C3409F066C02AC08091F40118
:100D100090E0A0E0B0E0481759076A077B07B9F1F7
:100D20004093F40119822AC08091F50190E0A0E07F
:100D3000B0E0481759076A077B0749F14093F5016E
:100D400081E01BC08091F60190E0A0E0B0E0481780
:100D500059076A077B07D9F04093F60182E00DC07E
:100D60008091F80190E0A0E0B0E0481759076A07C9
:100D70007B0769F04093F80184E0898329818091A1
:100D80002A0290912B02820F911D642FDFD284E6FC
:100D900049C0809123028823F1F480912202823499
:100DA00089F0833428F4803499F08134A1F403C0AD
:100DB0008C3489F40AC04091F50150E060E070E0A5
:100DC00084E634C04091F601F8CF4091F801F5CFA8
:100DD0004091F401F2CF84E025C080912202882363
:100DE000D1F48091F9018093170291E39093180256
:100DF00030E33093190222E320931A0290931B02EE
:100E000086E580931C0290931D0220931E0230936E
:100E10001F0291DD0CC084E640E450E360E270E123
:100E200005C082E040E050E060E070E08CDD80E0F2
:100E30000F90CF91DF910895CF93DF93EC019093C2
:100E40002B0280932A0284EF91E0BE0145E050E03E
:100E50006DD28091F401823499F082E48093F401A0
:100E600084E08093F5018093F6011092F70182E00F
:100E70008093F80184EF91E0BE0145E050E077D225
:100E8000E0917100F0917200309719F08091DC01CF
:100E900009958091F8018093F9018091F601809382
:100EA000EE01DF91CF9108951BBC1ABC19BC18BC90
:100EB0008FE392E097BD86BD82EA8FBD8BE18EBD48
:100EC00089B7806289BF089585E886B980E487B9CB
:100ED00010922D0210922C0208958770806487B9B9
:100EE00085EF8A95F1F7369A3699FECF24B135B160
:100EF000C9010895883018F0E0E0F0E009C0E82F5B
:100F0000F0E0EE0FFF1FE25DFD4F0190F081E02D5C
:100F1000CF0108951F9310917300183018F01E31FF
:100F200089F40EC0812FD9DFE12FF0E0EE0FFF1F13
:100F3000E25DFD4F918380831F5F1093730007C0B4
:100F400010927300809173008F5F809373001F91E4
:100F500008951F920F920FB60F9211248F938091D4
:100F60007600853030F081E0809374001092760036
:100F700003C08F5F809376008F910F900FBE0F900C
:100F80001F901895969A88EC90E020E731E0F901DF
:100F90003197F1F70197D9F782B38F7982BB089522
:100FA000959A88EC90E020E731E0F9013197F1F76C
:100FB0000197D9F782B38F7982BB089587E087BB09
:100FC00018BA86EE81BB1092400254D810924302A8
:100FD000E4D86ADF79DF10923F0210923E0210924D
:100FE000450210924202109241021092440282EC99
:100FF00091E090936E0080936D0082E999E0909368
:101000006C0080936B008EE899E090937000809361
:101010006F0080E190E056DC80E290E00DDF83E03D
:1010200090E09BBD8ABD99BD88BD7894089580915C
:1010300069002091400284FF02C02E7F01C0216020
:10104000209340028091450220914002882341F084
:1010500080913E0290913F029BBD8ABD246003C0F7
:101060001BBC1ABC2B7F209340028091440220912C
:101070004002882341F0809141029091420299BD43
:1010800088BD206103C019BC18BC2F7E209340028C
:1010900084E030DF8152934020F484E02BDF03971B
:1010A00020F480914002886003C080914002877FD5
:1010B0008093400283E01EDF8152934020F483E05E
:1010C00019DF039720F480914002806203C0809171
:1010D00040028F7D8093400280917500882351F0FB
:1010E000815080937500882329F4809140028D7F80
:1010F00080934002089580917400882331F010920B
:101100007400D5D807DF93DFB5D70895D1D78823EA
:1011100009F0F8C0E4D8DC0120E030E0F901EE513C
:10112000FE4F8C918083F901E05EFD4F8D918083AD
:101130002F5F3F4F2930310589F7E3D87DD98823C8
:1011400009F0AFC082E08093750080914002826018
:101150008093400296D98E3021F08F3009F0D2C0B2
:1011600085C08091E501813009F05AC08091E40189
:10117000882321F0813009F04DC026C08091CE0136
:101180009091CF01A091D001B091D1018937910503
:10119000A105B10564F088E790E0A0E0B0E080939D
:1011A000CE019093CF01A093D001B093D101409193
:1011B000CE015091CF016091D0017091D101509337
:1011C0003F0240933E0224C08091CE019091CF0116
:1011D000A091D001B091D101CD97A105B10564F0E6
:1011E0008CE390E0A0E0B0E08093CE019093CF013B
:1011F000A093D001B093D1014091CE015091CF0185
:101200006091D0017091D10150934202409341020C
:1012100084E605C083E040E050E060E070E0D9D8AB
:101220008091E501823009F06DC09091E40199232D
:1012300021F0913009F066C00DC08091B00180FFAF
:1012400004C081E0809345020895109245021BBCC2
:101250001ABC08958091B00181FF03C090934402AD
:1012600008951092440219BC18BC08958091E401BD
:10127000883018F43FDEAC0109C0883019F44AB553
:101280005BB504C0893031F448B559B560E070E011
:1012900084E605C083E040E050E060E070E099D86B
:1012A000089584DB882371F582E080937500809136
:1012B00040028260809340029EDB8E3019F580915F
:1012C000EF019091430280FF12C09923D9F45ADEB6
:1012D00081E0809343028091400280688F7B8093FD
:1012E0004002809169008F7E809369000895992360
:1012F00049F056DE109243028091400280648F775D
:101300008093400208955ADE8091400281648F7775
:1013100080934002F0DE4BD7F9DEFCCF87E192E00C
:1013200004D8089582ED91E000D80895DC01CB0146
:10133000FC01E199FECF06C0FFBBEEBBE09A3196FF
:101340000DB20D9241505040B8F70895262FE19903
:10135000FECF9FBB8EBBE09A01970DB2021631F013
:101360002DBB0FB6F894E29AE19A0FBE0895DC0106
:10137000CB0102C02D9105D041505040D8F70895BF
:10138000262FE199FECF9FBB8EBB2DBB0FB6F894E5
:10139000E29AE19A0FBE01960895F894FFCFFFFFFD
:1013A000FFFFFFFFFFFFFFFFFFFFFFFFFFFFFFFF4D
:1013B000FFFFFFFFFFFFFFFFFFFFFFFFFFFFFFFF3D
:1013C000FFFFFFFFFFFFFFFFFFFFFFFFFFFFFFFF2D
:1013D000FFFFFFFFFFFFFFFFFFFFFFFFFFFFFFFF1D
:00000001FF
